{
  "_format": "hh-sol-artifact-1",
  "contractName": "BuyMyRoom",
  "sourceName": "contracts/BuyMyRoom.sol",
  "abi": [
    {
      "inputs": [],
      "stateMutability": "nonpayable",
      "type": "constructor"
    },
    {
      "inputs": [
        {
          "internalType": "address",
          "name": "sender",
          "type": "address"
        },
        {
          "internalType": "uint256",
          "name": "tokenId",
          "type": "uint256"
        },
        {
          "internalType": "address",
          "name": "owner",
          "type": "address"
        }
      ],
      "name": "ERC721IncorrectOwner",
      "type": "error"
    },
    {
      "inputs": [
        {
          "internalType": "address",
          "name": "operator",
          "type": "address"
        },
        {
          "internalType": "uint256",
          "name": "tokenId",
          "type": "uint256"
        }
      ],
      "name": "ERC721InsufficientApproval",
      "type": "error"
    },
    {
      "inputs": [
        {
          "internalType": "address",
          "name": "approver",
          "type": "address"
        }
      ],
      "name": "ERC721InvalidApprover",
      "type": "error"
    },
    {
      "inputs": [
        {
          "internalType": "address",
          "name": "operator",
          "type": "address"
        }
      ],
      "name": "ERC721InvalidOperator",
      "type": "error"
    },
    {
      "inputs": [
        {
          "internalType": "address",
          "name": "owner",
          "type": "address"
        }
      ],
      "name": "ERC721InvalidOwner",
      "type": "error"
    },
    {
      "inputs": [
        {
          "internalType": "address",
          "name": "receiver",
          "type": "address"
        }
      ],
      "name": "ERC721InvalidReceiver",
      "type": "error"
    },
    {
      "inputs": [
        {
          "internalType": "address",
          "name": "sender",
          "type": "address"
        }
      ],
      "name": "ERC721InvalidSender",
      "type": "error"
    },
    {
      "inputs": [
        {
          "internalType": "uint256",
          "name": "tokenId",
          "type": "uint256"
        }
      ],
      "name": "ERC721NonexistentToken",
      "type": "error"
    },
    {
      "inputs": [
        {
          "internalType": "address",
          "name": "owner",
          "type": "address"
        }
      ],
      "name": "OwnableInvalidOwner",
      "type": "error"
    },
    {
      "inputs": [
        {
          "internalType": "address",
          "name": "account",
          "type": "address"
        }
      ],
      "name": "OwnableUnauthorizedAccount",
      "type": "error"
    },
    {
      "anonymous": false,
      "inputs": [
        {
          "indexed": true,
          "internalType": "address",
          "name": "owner",
          "type": "address"
        },
        {
          "indexed": true,
          "internalType": "address",
          "name": "approved",
          "type": "address"
        },
        {
          "indexed": true,
          "internalType": "uint256",
          "name": "tokenId",
          "type": "uint256"
        }
      ],
      "name": "Approval",
      "type": "event"
    },
    {
      "anonymous": false,
      "inputs": [
        {
          "indexed": true,
          "internalType": "address",
          "name": "owner",
          "type": "address"
        },
        {
          "indexed": true,
          "internalType": "address",
          "name": "operator",
          "type": "address"
        },
        {
          "indexed": false,
          "internalType": "bool",
          "name": "approved",
          "type": "bool"
        }
      ],
      "name": "ApprovalForAll",
      "type": "event"
    },
    {
      "anonymous": false,
      "inputs": [
        {
          "indexed": false,
          "internalType": "uint256",
          "name": "tokenId",
          "type": "uint256"
        },
        {
          "indexed": false,
          "internalType": "uint256",
          "name": "price",
          "type": "uint256"
        },
        {
          "indexed": false,
          "internalType": "address",
          "name": "owner",
          "type": "address"
        }
      ],
      "name": "HouseListed",
      "type": "event"
    },
    {
      "anonymous": false,
      "inputs": [
        {
          "indexed": true,
          "internalType": "address",
          "name": "previousOwner",
          "type": "address"
        },
        {
          "indexed": true,
          "internalType": "address",
          "name": "newOwner",
          "type": "address"
        }
      ],
      "name": "OwnershipTransferred",
      "type": "event"
    },
    {
      "anonymous": false,
      "inputs": [
        {
          "indexed": true,
          "internalType": "address",
          "name": "from",
          "type": "address"
        },
        {
          "indexed": true,
          "internalType": "address",
          "name": "to",
          "type": "address"
        },
        {
          "indexed": true,
          "internalType": "uint256",
          "name": "tokenId",
          "type": "uint256"
        }
      ],
      "name": "Transfer",
      "type": "event"
    },
    {
      "inputs": [
        {
          "internalType": "address",
          "name": "to",
          "type": "address"
        },
        {
          "internalType": "uint256",
          "name": "tokenId",
          "type": "uint256"
        }
      ],
      "name": "approve",
      "outputs": [],
      "stateMutability": "nonpayable",
      "type": "function"
    },
    {
      "inputs": [
        {
          "internalType": "address",
          "name": "owner",
          "type": "address"
        }
      ],
      "name": "balanceOf",
      "outputs": [
        {
          "internalType": "uint256",
          "name": "",
          "type": "uint256"
        }
      ],
      "stateMutability": "view",
      "type": "function"
    },
    {
      "inputs": [
        {
          "internalType": "uint256",
          "name": "_houseId",
          "type": "uint256"
        }
      ],
      "name": "buyHouse",
      "outputs": [],
      "stateMutability": "payable",
      "type": "function"
    },
    {
      "inputs": [
        {
          "internalType": "uint256",
          "name": "_houseId",
          "type": "uint256"
        }
      ],
      "name": "delistHouse",
      "outputs": [],
      "stateMutability": "nonpayable",
      "type": "function"
    },
    {
      "inputs": [
        {
          "internalType": "uint256",
          "name": "tokenId",
          "type": "uint256"
        }
      ],
      "name": "getApproved",
      "outputs": [
        {
          "internalType": "address",
          "name": "",
          "type": "address"
        }
      ],
      "stateMutability": "view",
      "type": "function"
    },
    {
      "inputs": [
        {
          "internalType": "uint256",
          "name": "_houseId",
          "type": "uint256"
        }
      ],
      "name": "getHouseInfo",
      "outputs": [
        {
          "components": [
            {
              "internalType": "uint256",
              "name": "id",
              "type": "uint256"
            },
            {
              "internalType": "string",
              "name": "uri",
              "type": "string"
            },
            {
              "internalType": "address",
              "name": "owner",
              "type": "address"
            },
            {
              "internalType": "uint256",
              "name": "price",
              "type": "uint256"
            },
            {
              "internalType": "uint256",
              "name": "listedTimestamp",
              "type": "uint256"
            }
          ],
          "internalType": "struct BuyMyRoom.House",
          "name": "",
          "type": "tuple"
        }
      ],
      "stateMutability": "view",
      "type": "function"
    },
    {
      "inputs": [],
      "name": "helloworld",
      "outputs": [
        {
          "internalType": "string",
          "name": "",
          "type": "string"
        }
      ],
      "stateMutability": "pure",
      "type": "function"
    },
    {
      "inputs": [
        {
          "internalType": "uint256",
          "name": "",
          "type": "uint256"
        }
      ],
      "name": "houses",
      "outputs": [
        {
          "internalType": "uint256",
          "name": "id",
          "type": "uint256"
        },
        {
          "internalType": "string",
          "name": "uri",
          "type": "string"
        },
        {
          "internalType": "address",
          "name": "owner",
          "type": "address"
        },
        {
          "internalType": "uint256",
          "name": "price",
          "type": "uint256"
        },
        {
          "internalType": "uint256",
          "name": "listedTimestamp",
          "type": "uint256"
        }
      ],
      "stateMutability": "view",
      "type": "function"
    },
    {
      "inputs": [
        {
          "internalType": "address",
          "name": "owner",
          "type": "address"
        },
        {
          "internalType": "address",
          "name": "operator",
          "type": "address"
        }
      ],
      "name": "isApprovedForAll",
      "outputs": [
        {
          "internalType": "bool",
          "name": "",
          "type": "bool"
        }
      ],
      "stateMutability": "view",
      "type": "function"
    },
    {
      "inputs": [
        {
          "internalType": "uint256",
          "name": "_houseId",
          "type": "uint256"
        },
        {
          "internalType": "uint256",
          "name": "_price",
          "type": "uint256"
        }
      ],
      "name": "listHouseForSale",
      "outputs": [],
      "stateMutability": "nonpayable",
      "type": "function"
    },
    {
      "inputs": [
        {
          "internalType": "string",
          "name": "_uri",
          "type": "string"
        }
      ],
      "name": "mintHouse",
      "outputs": [],
      "stateMutability": "nonpayable",
      "type": "function"
    },
    {
      "inputs": [],
      "name": "myERC20",
      "outputs": [
        {
          "internalType": "contract MyERC20",
          "name": "",
          "type": "address"
        }
      ],
      "stateMutability": "view",
      "type": "function"
    },
    {
      "inputs": [],
      "name": "name",
      "outputs": [
        {
          "internalType": "string",
          "name": "",
          "type": "string"
        }
      ],
      "stateMutability": "view",
      "type": "function"
    },
    {
      "inputs": [],
      "name": "nextHouseId",
      "outputs": [
        {
          "internalType": "uint256",
          "name": "",
          "type": "uint256"
        }
      ],
      "stateMutability": "view",
      "type": "function"
    },
    {
      "inputs": [],
      "name": "owner",
      "outputs": [
        {
          "internalType": "address",
          "name": "",
          "type": "address"
        }
      ],
      "stateMutability": "view",
      "type": "function"
    },
    {
      "inputs": [
        {
          "internalType": "uint256",
          "name": "tokenId",
          "type": "uint256"
        }
      ],
      "name": "ownerOf",
      "outputs": [
        {
          "internalType": "address",
          "name": "",
          "type": "address"
        }
      ],
      "stateMutability": "view",
      "type": "function"
    },
    {
      "inputs": [],
      "name": "platformAccount",
      "outputs": [
        {
          "internalType": "address",
          "name": "",
          "type": "address"
        }
      ],
      "stateMutability": "view",
      "type": "function"
    },
    {
      "inputs": [],
      "name": "platformFeeRate",
      "outputs": [
        {
          "internalType": "uint256",
          "name": "",
          "type": "uint256"
        }
      ],
      "stateMutability": "view",
      "type": "function"
    },
    {
      "inputs": [],
      "name": "renounceOwnership",
      "outputs": [],
      "stateMutability": "nonpayable",
      "type": "function"
    },
    {
      "inputs": [
        {
          "internalType": "address",
          "name": "from",
          "type": "address"
        },
        {
          "internalType": "address",
          "name": "to",
          "type": "address"
        },
        {
          "internalType": "uint256",
          "name": "tokenId",
          "type": "uint256"
        }
      ],
      "name": "safeTransferFrom",
      "outputs": [],
      "stateMutability": "nonpayable",
      "type": "function"
    },
    {
      "inputs": [
        {
          "internalType": "address",
          "name": "from",
          "type": "address"
        },
        {
          "internalType": "address",
          "name": "to",
          "type": "address"
        },
        {
          "internalType": "uint256",
          "name": "tokenId",
          "type": "uint256"
        },
        {
          "internalType": "bytes",
          "name": "data",
          "type": "bytes"
        }
      ],
      "name": "safeTransferFrom",
      "outputs": [],
      "stateMutability": "nonpayable",
      "type": "function"
    },
    {
      "inputs": [
        {
          "internalType": "address",
          "name": "operator",
          "type": "address"
        },
        {
          "internalType": "bool",
          "name": "approved",
          "type": "bool"
        }
      ],
      "name": "setApprovalForAll",
      "outputs": [],
      "stateMutability": "nonpayable",
      "type": "function"
    },
    {
      "inputs": [
        {
          "internalType": "bytes4",
          "name": "interfaceId",
          "type": "bytes4"
        }
      ],
      "name": "supportsInterface",
      "outputs": [
        {
          "internalType": "bool",
          "name": "",
          "type": "bool"
        }
      ],
      "stateMutability": "view",
      "type": "function"
    },
    {
      "inputs": [],
      "name": "symbol",
      "outputs": [
        {
          "internalType": "string",
          "name": "",
          "type": "string"
        }
      ],
      "stateMutability": "view",
      "type": "function"
    },
    {
      "inputs": [
        {
          "internalType": "uint256",
          "name": "tokenId",
          "type": "uint256"
        }
      ],
      "name": "tokenURI",
      "outputs": [
        {
          "internalType": "string",
          "name": "",
          "type": "string"
        }
      ],
      "stateMutability": "view",
      "type": "function"
    },
    {
      "inputs": [
        {
          "internalType": "address",
          "name": "from",
          "type": "address"
        },
        {
          "internalType": "address",
          "name": "to",
          "type": "address"
        },
        {
          "internalType": "uint256",
          "name": "tokenId",
          "type": "uint256"
        }
      ],
      "name": "transferFrom",
      "outputs": [],
      "stateMutability": "nonpayable",
      "type": "function"
    },
    {
      "inputs": [
        {
          "internalType": "address",
          "name": "newOwner",
          "type": "address"
        }
      ],
      "name": "transferOwnership",
      "outputs": [],
      "stateMutability": "nonpayable",
      "type": "function"
    }
  ],
  "bytecode": "0x6080604052600060075560646008553480156200001b57600080fd5b50336040518060400160405280600981526020017f4275794d79526f6f6d00000000000000000000000000000000000000000000008152506040518060400160405280600381526020017f485345000000000000000000000000000000000000000000000000000000000081525081600090816200009a919062000542565b508060019081620000ac919062000542565b505050600073ffffffffffffffffffffffffffffffffffffffff168173ffffffffffffffffffffffffffffffffffffffff1603620001245760006040517f1e4fbdf70000000000000000000000000000000000000000000000000000000081526004016200011b91906200066e565b60405180910390fd5b6200013581620001f460201b60201c565b506040516200014490620002ba565b6200014f906200073c565b604051809103906000f0801580156200016c573d6000803e3d6000fd5b50600a60006101000a81548173ffffffffffffffffffffffffffffffffffffffff021916908373ffffffffffffffffffffffffffffffffffffffff16021790555033600960006101000a81548173ffffffffffffffffffffffffffffffffffffffff021916908373ffffffffffffffffffffffffffffffffffffffff16021790555062000773565b6000600660009054906101000a900473ffffffffffffffffffffffffffffffffffffffff16905081600660006101000a81548173ffffffffffffffffffffffffffffffffffffffff021916908373ffffffffffffffffffffffffffffffffffffffff1602179055508173ffffffffffffffffffffffffffffffffffffffff168173ffffffffffffffffffffffffffffffffffffffff167f8be0079c531659141344cd1fd0a4f28419497f9722a3daafe3b4186f6b6457e060405160405180910390a35050565b6116678062003ca183390190565b600081519050919050565b7f4e487b7100000000000000000000000000000000000000000000000000000000600052604160045260246000fd5b7f4e487b7100000000000000000000000000000000000000000000000000000000600052602260045260246000fd5b600060028204905060018216806200034a57607f821691505b60208210810362000360576200035f62000302565b5b50919050565b60008190508160005260206000209050919050565b60006020601f8301049050919050565b600082821b905092915050565b600060088302620003ca7fffffffffffffffffffffffffffffffffffffffffffffffffffffffffffffffff826200038b565b620003d686836200038b565b95508019841693508086168417925050509392505050565b6000819050919050565b6000819050919050565b6000620004236200041d6200041784620003ee565b620003f8565b620003ee565b9050919050565b6000819050919050565b6200043f8362000402565b620004576200044e826200042a565b84845462000398565b825550505050565b600090565b6200046e6200045f565b6200047b81848462000434565b505050565b5b81811015620004a3576200049760008262000464565b60018101905062000481565b5050565b601f821115620004f257620004bc8162000366565b620004c7846200037b565b81016020851015620004d7578190505b620004ef620004e6856200037b565b83018262000480565b50505b505050565b600082821c905092915050565b60006200051760001984600802620004f7565b1980831691505092915050565b600062000532838362000504565b9150826002028217905092915050565b6200054d82620002c8565b67ffffffffffffffff811115620005695762000568620002d3565b5b62000575825462000331565b62000582828285620004a7565b600060209050601f831160018114620005ba5760008415620005a5578287015190505b620005b1858262000524565b86555062000621565b601f198416620005ca8662000366565b60005b82811015620005f457848901518255600182019150602085019450602081019050620005cd565b8683101562000614578489015162000610601f89168262000504565b8355505b6001600288020188555050505b505050505050565b600073ffffffffffffffffffffffffffffffffffffffff82169050919050565b6000620006568262000629565b9050919050565b620006688162000649565b82525050565b60006020820190506200068560008301846200065d565b92915050565b600082825260208201905092915050565b7f5a4a55546f6b656e000000000000000000000000000000000000000000000000600082015250565b6000620006d46008836200068b565b9150620006e1826200069c565b602082019050919050565b7f5a4a5553796d626f6c0000000000000000000000000000000000000000000000600082015250565b6000620007246009836200068b565b91506200073182620006ec565b602082019050919050565b600060408201905081810360008301526200075781620006c5565b905081810360208301526200076c8162000715565b9050919050565b61351e80620007836000396000f3fe60806040526004361061019c5760003560e01c80638da5cb5b116100ec578063b88d4fde1161008a578063e985e9c511610064578063e985e9c5146105dc578063eddc426914610619578063eeca08f014610635578063f2fde38b146106605761019c565b8063b88d4fde1461054d578063c87b56dd14610576578063c9fd96ad146105b35761019c565b8063a22cb465116100c6578063a22cb4651461047b578063ad50f56d146104a4578063aeda852f146104e1578063b54230c9146105225761019c565b80638da5cb5b146103fa57806395d89b411461042557806397849eb3146104505761019c565b80633c3b0b4a116101595780636d3739c4116101335780636d3739c4146103525780636dde08dd1461037d57806370a08231146103a6578063715018a6146103e35761019c565b80633c3b0b4a146102c357806342842e0e146102ec5780636352211e146103155761019c565b806301ffc9a7146101a157806306fdde03146101de578063081812fc14610209578063095ea7b31461024657806323b872dd1461026f5780632f2f485914610298575b600080fd5b3480156101ad57600080fd5b506101c860048036038101906101c3919061257d565b610689565b6040516101d591906125c5565b60405180910390f35b3480156101ea57600080fd5b506101f361076b565b6040516102009190612670565b60405180910390f35b34801561021557600080fd5b50610230600480360381019061022b91906126c8565b6107fd565b60405161023d9190612736565b60405180910390f35b34801561025257600080fd5b5061026d6004803603810190610268919061277d565b610819565b005b34801561027b57600080fd5b50610296600480360381019061029191906127bd565b61082f565b005b3480156102a457600080fd5b506102ad610931565b6040516102ba9190612670565b60405180910390f35b3480156102cf57600080fd5b506102ea60048036038101906102e591906126c8565b61096e565b005b3480156102f857600080fd5b50610313600480360381019061030e91906127bd565b610a2f565b005b34801561032157600080fd5b5061033c600480360381019061033791906126c8565b610a4f565b6040516103499190612736565b60405180910390f35b34801561035e57600080fd5b50610367610a61565b604051610374919061286f565b60405180910390f35b34801561038957600080fd5b506103a4600480360381019061039f91906129bf565b610a87565b005b3480156103b257600080fd5b506103cd60048036038101906103c89190612a08565b610b84565b6040516103da9190612a44565b60405180910390f35b3480156103ef57600080fd5b506103f8610c3e565b005b34801561040657600080fd5b5061040f610c52565b60405161041c9190612736565b60405180910390f35b34801561043157600080fd5b5061043a610c7c565b6040516104479190612670565b60405180910390f35b34801561045c57600080fd5b50610465610d0e565b6040516104729190612736565b60405180910390f35b34801561048757600080fd5b506104a2600480360381019061049d9190612a8b565b610d34565b005b3480156104b057600080fd5b506104cb60048036038101906104c691906126c8565b610d4a565b6040516104d89190612ba9565b60405180910390f35b3480156104ed57600080fd5b50610508600480360381019061050391906126c8565b610e7d565b604051610519959493929190612bcb565b60405180910390f35b34801561052e57600080fd5b50610537610f5b565b6040516105449190612a44565b60405180910390f35b34801561055957600080fd5b50610574600480360381019061056f9190612cc6565b610f61565b005b34801561058257600080fd5b5061059d600480360381019061059891906126c8565b610f7e565b6040516105aa9190612670565b60405180910390f35b3480156105bf57600080fd5b506105da60048036038101906105d59190612d49565b610fe7565b005b3480156105e857600080fd5b5061060360048036038101906105fe9190612d89565b6110e2565b60405161061091906125c5565b60405180910390f35b610633600480360381019061062e91906126c8565b611176565b005b34801561064157600080fd5b5061064a61140b565b6040516106579190612a44565b60405180910390f35b34801561066c57600080fd5b5061068760048036038101906106829190612a08565b611411565b005b60007f80ac58cd000000000000000000000000000000000000000000000000000000007bffffffffffffffffffffffffffffffffffffffffffffffffffffffff1916827bffffffffffffffffffffffffffffffffffffffffffffffffffffffff1916148061075457507f5b5e139f000000000000000000000000000000000000000000000000000000007bffffffffffffffffffffffffffffffffffffffffffffffffffffffff1916827bffffffffffffffffffffffffffffffffffffffffffffffffffffffff1916145b80610764575061076382611497565b5b9050919050565b60606000805461077a90612df8565b80601f01602080910402602001604051908101604052809291908181526020018280546107a690612df8565b80156107f35780601f106107c8576101008083540402835291602001916107f3565b820191906000526020600020905b8154815290600101906020018083116107d657829003601f168201915b5050505050905090565b600061080882611501565b5061081282611589565b9050919050565b61082b82826108266115c6565b6115ce565b5050565b600073ffffffffffffffffffffffffffffffffffffffff168273ffffffffffffffffffffffffffffffffffffffff16036108a15760006040517f64a0ae920000000000000000000000000000000000000000000000000000000081526004016108989190612736565b60405180910390fd5b60006108b583836108b06115c6565b6115e0565b90508373ffffffffffffffffffffffffffffffffffffffff168173ffffffffffffffffffffffffffffffffffffffff161461092b578382826040517f64283d7b00000000000000000000000000000000000000000000000000000000815260040161092293929190612e29565b60405180910390fd5b50505050565b60606040518060400160405280600b81526020017f68656c6c6f20776f726c64000000000000000000000000000000000000000000815250905090565b6000600b600083815260200190815260200160002090503373ffffffffffffffffffffffffffffffffffffffff168160020160009054906101000a900473ffffffffffffffffffffffffffffffffffffffff1673ffffffffffffffffffffffffffffffffffffffff1614610a17576040517f08c379a0000000000000000000000000000000000000000000000000000000008152600401610a0e90612ed2565b60405180910390fd5b60008160030181905550600081600401819055505050565b610a4a83838360405180602001604052806000815250610f61565b505050565b6000610a5a82611501565b9050919050565b600a60009054906101000a900473ffffffffffffffffffffffffffffffffffffffff1681565b600060075490506040518060a001604052808281526020018381526020013373ffffffffffffffffffffffffffffffffffffffff168152602001600081526020016000815250600b6000838152602001908152602001600020600082015181600001556020820151816001019081610aff9190613094565b5060408201518160020160006101000a81548173ffffffffffffffffffffffffffffffffffffffff021916908373ffffffffffffffffffffffffffffffffffffffff1602179055506060820151816003015560808201518160040155905050610b6833826117fa565b60076000815480929190610b7b90613195565b91905055505050565b60008073ffffffffffffffffffffffffffffffffffffffff168273ffffffffffffffffffffffffffffffffffffffff1603610bf75760006040517f89c62b64000000000000000000000000000000000000000000000000000000008152600401610bee9190612736565b60405180910390fd5b600360008373ffffffffffffffffffffffffffffffffffffffff1673ffffffffffffffffffffffffffffffffffffffff168152602001908152602001600020549050919050565b610c46611818565b610c50600061189f565b565b6000600660009054906101000a900473ffffffffffffffffffffffffffffffffffffffff16905090565b606060018054610c8b90612df8565b80601f0160208091040260200160405190810160405280929190818152602001828054610cb790612df8565b8015610d045780601f10610cd957610100808354040283529160200191610d04565b820191906000526020600020905b815481529060010190602001808311610ce757829003601f168201915b5050505050905090565b600960009054906101000a900473ffffffffffffffffffffffffffffffffffffffff1681565b610d46610d3f6115c6565b8383611965565b5050565b610d526124cc565b600b60008381526020019081526020016000206040518060a001604052908160008201548152602001600182018054610d8a90612df8565b80601f0160208091040260200160405190810160405280929190818152602001828054610db690612df8565b8015610e035780601f10610dd857610100808354040283529160200191610e03565b820191906000526020600020905b815481529060010190602001808311610de657829003601f168201915b505050505081526020016002820160009054906101000a900473ffffffffffffffffffffffffffffffffffffffff1673ffffffffffffffffffffffffffffffffffffffff1673ffffffffffffffffffffffffffffffffffffffff168152602001600382015481526020016004820154815250509050919050565b600b602052806000526040600020600091509050806000015490806001018054610ea690612df8565b80601f0160208091040260200160405190810160405280929190818152602001828054610ed290612df8565b8015610f1f5780601f10610ef457610100808354040283529160200191610f1f565b820191906000526020600020905b815481529060010190602001808311610f0257829003601f168201915b5050505050908060020160009054906101000a900473ffffffffffffffffffffffffffffffffffffffff16908060030154908060040154905085565b60075481565b610f6c84848461082f565b610f7884848484611ad4565b50505050565b6060610f8982611501565b506000610f94611c8b565b90506000815111610fb45760405180602001604052806000815250610fdf565b80610fbe84611ca2565b604051602001610fcf929190613219565b6040516020818303038152906040525b915050919050565b6000600b600084815260200190815260200160002090503373ffffffffffffffffffffffffffffffffffffffff168160020160009054906101000a900473ffffffffffffffffffffffffffffffffffffffff1673ffffffffffffffffffffffffffffffffffffffff1614611090576040517f08c379a0000000000000000000000000000000000000000000000000000000008152600401611087906132af565b60405180910390fd5b8181600301819055504281600401819055507f60b3e540896cf4a419e7b7274a1f1282223f5d92ca6f0152cf820fe457fb48438383336040516110d5939291906132cf565b60405180910390a1505050565b6000600560008473ffffffffffffffffffffffffffffffffffffffff1673ffffffffffffffffffffffffffffffffffffffff16815260200190815260200160002060008373ffffffffffffffffffffffffffffffffffffffff1673ffffffffffffffffffffffffffffffffffffffff16815260200190815260200160002060009054906101000a900460ff16905092915050565b6000600b60008381526020019081526020016000206040518060a0016040529081600082015481526020016001820180546111b090612df8565b80601f01602080910402602001604051908101604052809291908181526020018280546111dc90612df8565b80156112295780601f106111fe57610100808354040283529160200191611229565b820191906000526020600020905b81548152906001019060200180831161120c57829003601f168201915b505050505081526020016002820160009054906101000a900473ffffffffffffffffffffffffffffffffffffffff1673ffffffffffffffffffffffffffffffffffffffff1673ffffffffffffffffffffffffffffffffffffffff168152602001600382015481526020016004820154815250509050600061271082606001516008546112b59190613306565b6112bf9190613377565b9050600081346112cf91906133a8565b9050826040015173ffffffffffffffffffffffffffffffffffffffff166108fc829081150290604051600060405180830381858888f1935050505015801561131b573d6000803e3d6000fd5b50600960009054906101000a900473ffffffffffffffffffffffffffffffffffffffff1673ffffffffffffffffffffffffffffffffffffffff166108fc839081150290604051600060405180830381858888f19350505050158015611384573d6000803e3d6000fd5b5061139483604001513386611d70565b6000600b60008681526020019081526020016000206003018190555033600b600086815260200190815260200160002060020160006101000a81548173ffffffffffffffffffffffffffffffffffffffff021916908373ffffffffffffffffffffffffffffffffffffffff16021790555050505050565b60085481565b611419611818565b600073ffffffffffffffffffffffffffffffffffffffff168173ffffffffffffffffffffffffffffffffffffffff160361148b5760006040517f1e4fbdf70000000000000000000000000000000000000000000000000000000081526004016114829190612736565b60405180910390fd5b6114948161189f565b50565b60007f01ffc9a7000000000000000000000000000000000000000000000000000000007bffffffffffffffffffffffffffffffffffffffffffffffffffffffff1916827bffffffffffffffffffffffffffffffffffffffffffffffffffffffff1916149050919050565b60008061150d83611edd565b9050600073ffffffffffffffffffffffffffffffffffffffff168173ffffffffffffffffffffffffffffffffffffffff160361158057826040517f7e2732890000000000000000000000000000000000000000000000000000000081526004016115779190612a44565b60405180910390fd5b80915050919050565b60006004600083815260200190815260200160002060009054906101000a900473ffffffffffffffffffffffffffffffffffffffff169050919050565b600033905090565b6115db8383836001611f1a565b505050565b6000806115ec84611edd565b9050600073ffffffffffffffffffffffffffffffffffffffff168373ffffffffffffffffffffffffffffffffffffffff161461162e5761162d8184866120df565b5b600073ffffffffffffffffffffffffffffffffffffffff168173ffffffffffffffffffffffffffffffffffffffff16146116bf57611670600085600080611f1a565b6001600360008373ffffffffffffffffffffffffffffffffffffffff1673ffffffffffffffffffffffffffffffffffffffff168152602001908152602001600020600082825403925050819055505b600073ffffffffffffffffffffffffffffffffffffffff168573ffffffffffffffffffffffffffffffffffffffff1614611742576001600360008773ffffffffffffffffffffffffffffffffffffffff1673ffffffffffffffffffffffffffffffffffffffff168152602001908152602001600020600082825401925050819055505b846002600086815260200190815260200160002060006101000a81548173ffffffffffffffffffffffffffffffffffffffff021916908373ffffffffffffffffffffffffffffffffffffffff160217905550838573ffffffffffffffffffffffffffffffffffffffff168273ffffffffffffffffffffffffffffffffffffffff167fddf252ad1be2c89b69c2b068fc378daa952ba7f163c4a11628f55a4df523b3ef60405160405180910390a4809150509392505050565b6118148282604051806020016040528060008152506121a3565b5050565b6118206115c6565b73ffffffffffffffffffffffffffffffffffffffff1661183e610c52565b73ffffffffffffffffffffffffffffffffffffffff161461189d576118616115c6565b6040517f118cdaa70000000000000000000000000000000000000000000000000000000081526004016118949190612736565b60405180910390fd5b565b6000600660009054906101000a900473ffffffffffffffffffffffffffffffffffffffff16905081600660006101000a81548173ffffffffffffffffffffffffffffffffffffffff021916908373ffffffffffffffffffffffffffffffffffffffff1602179055508173ffffffffffffffffffffffffffffffffffffffff168173ffffffffffffffffffffffffffffffffffffffff167f8be0079c531659141344cd1fd0a4f28419497f9722a3daafe3b4186f6b6457e060405160405180910390a35050565b600073ffffffffffffffffffffffffffffffffffffffff168273ffffffffffffffffffffffffffffffffffffffff16036119d657816040517f5b08ba180000000000000000000000000000000000000000000000000000000081526004016119cd9190612736565b60405180910390fd5b80600560008573ffffffffffffffffffffffffffffffffffffffff1673ffffffffffffffffffffffffffffffffffffffff16815260200190815260200160002060008473ffffffffffffffffffffffffffffffffffffffff1673ffffffffffffffffffffffffffffffffffffffff16815260200190815260200160002060006101000a81548160ff0219169083151502179055508173ffffffffffffffffffffffffffffffffffffffff168373ffffffffffffffffffffffffffffffffffffffff167f17307eab39ab6107e8899845ad3d59bd9653f200f220920489ca2b5937696c3183604051611ac791906125c5565b60405180910390a3505050565b60008373ffffffffffffffffffffffffffffffffffffffff163b1115611c85578273ffffffffffffffffffffffffffffffffffffffff1663150b7a02611b186115c6565b8685856040518563ffffffff1660e01b8152600401611b3a9493929190613431565b6020604051808303816000875af1925050508015611b7657506040513d601f19601f82011682018060405250810190611b739190613492565b60015b611bfa573d8060008114611ba6576040519150601f19603f3d011682016040523d82523d6000602084013e611bab565b606091505b506000815103611bf257836040517f64a0ae92000000000000000000000000000000000000000000000000000000008152600401611be99190612736565b60405180910390fd5b805181602001fd5b63150b7a0260e01b7bffffffffffffffffffffffffffffffffffffffffffffffffffffffff1916817bffffffffffffffffffffffffffffffffffffffffffffffffffffffff191614611c8357836040517f64a0ae92000000000000000000000000000000000000000000000000000000008152600401611c7a9190612736565b60405180910390fd5b505b50505050565b606060405180602001604052806000815250905090565b606060006001611cb1846121bf565b01905060008167ffffffffffffffff811115611cd057611ccf612894565b5b6040519080825280601f01601f191660200182016040528015611d025781602001600182028036833780820191505090505b509050600082602001820190505b600115611d65578080600190039150507f3031323334353637383961626364656600000000000000000000000000000000600a86061a8153600a8581611d5957611d58613348565b5b04945060008503611d10575b819350505050919050565b600073ffffffffffffffffffffffffffffffffffffffff168273ffffffffffffffffffffffffffffffffffffffff1603611de25760006040517f64a0ae92000000000000000000000000000000000000000000000000000000008152600401611dd99190612736565b60405180910390fd5b6000611df0838360006115e0565b9050600073ffffffffffffffffffffffffffffffffffffffff168173ffffffffffffffffffffffffffffffffffffffff1603611e6357816040517f7e273289000000000000000000000000000000000000000000000000000000008152600401611e5a9190612a44565b60405180910390fd5b8373ffffffffffffffffffffffffffffffffffffffff168173ffffffffffffffffffffffffffffffffffffffff1614611ed7578382826040517f64283d7b000000000000000000000000000000000000000000000000000000008152600401611ece93929190612e29565b60405180910390fd5b50505050565b60006002600083815260200190815260200160002060009054906101000a900473ffffffffffffffffffffffffffffffffffffffff169050919050565b8080611f535750600073ffffffffffffffffffffffffffffffffffffffff168273ffffffffffffffffffffffffffffffffffffffff1614155b15612087576000611f6384611501565b9050600073ffffffffffffffffffffffffffffffffffffffff168373ffffffffffffffffffffffffffffffffffffffff1614158015611fce57508273ffffffffffffffffffffffffffffffffffffffff168173ffffffffffffffffffffffffffffffffffffffff1614155b8015611fe15750611fdf81846110e2565b155b1561202357826040517fa9fbf51f00000000000000000000000000000000000000000000000000000000815260040161201a9190612736565b60405180910390fd5b811561208557838573ffffffffffffffffffffffffffffffffffffffff168273ffffffffffffffffffffffffffffffffffffffff167f8c5be1e5ebec7d5bd14f71427d1e84f3dd0314c0f7b2291e5b200ac8c7c3b92560405160405180910390a45b505b836004600085815260200190815260200160002060006101000a81548173ffffffffffffffffffffffffffffffffffffffff021916908373ffffffffffffffffffffffffffffffffffffffff16021790555050505050565b6120ea838383612312565b61219e57600073ffffffffffffffffffffffffffffffffffffffff168373ffffffffffffffffffffffffffffffffffffffff160361215f57806040517f7e2732890000000000000000000000000000000000000000000000000000000081526004016121569190612a44565b60405180910390fd5b81816040517f177e802f0000000000000000000000000000000000000000000000000000000081526004016121959291906134bf565b60405180910390fd5b505050565b6121ad83836123d3565b6121ba6000848484611ad4565b505050565b600080600090507a184f03e93ff9f4daa797ed6e38ed64bf6a1f010000000000000000831061221d577a184f03e93ff9f4daa797ed6e38ed64bf6a1f010000000000000000838161221357612212613348565b5b0492506040810190505b6d04ee2d6d415b85acef8100000000831061225a576d04ee2d6d415b85acef810000000083816122505761224f613348565b5b0492506020810190505b662386f26fc10000831061228957662386f26fc10000838161227f5761227e613348565b5b0492506010810190505b6305f5e10083106122b2576305f5e10083816122a8576122a7613348565b5b0492506008810190505b61271083106122d75761271083816122cd576122cc613348565b5b0492506004810190505b606483106122fa57606483816122f0576122ef613348565b5b0492506002810190505b600a8310612309576001810190505b80915050919050565b60008073ffffffffffffffffffffffffffffffffffffffff168373ffffffffffffffffffffffffffffffffffffffff16141580156123ca57508273ffffffffffffffffffffffffffffffffffffffff168473ffffffffffffffffffffffffffffffffffffffff16148061238b575061238a84846110e2565b5b806123c957508273ffffffffffffffffffffffffffffffffffffffff166123b183611589565b73ffffffffffffffffffffffffffffffffffffffff16145b5b90509392505050565b600073ffffffffffffffffffffffffffffffffffffffff168273ffffffffffffffffffffffffffffffffffffffff16036124455760006040517f64a0ae9200000000000000000000000000000000000000000000000000000000815260040161243c9190612736565b60405180910390fd5b6000612453838360006115e0565b9050600073ffffffffffffffffffffffffffffffffffffffff168173ffffffffffffffffffffffffffffffffffffffff16146124c75760006040517f73c6ac6e0000000000000000000000000000000000000000000000000000000081526004016124be9190612736565b60405180910390fd5b505050565b6040518060a001604052806000815260200160608152602001600073ffffffffffffffffffffffffffffffffffffffff16815260200160008152602001600081525090565b6000604051905090565b600080fd5b600080fd5b60007fffffffff0000000000000000000000000000000000000000000000000000000082169050919050565b61255a81612525565b811461256557600080fd5b50565b60008135905061257781612551565b92915050565b6000602082840312156125935761259261251b565b5b60006125a184828501612568565b91505092915050565b60008115159050919050565b6125bf816125aa565b82525050565b60006020820190506125da60008301846125b6565b92915050565b600081519050919050565b600082825260208201905092915050565b60005b8381101561261a5780820151818401526020810190506125ff565b60008484015250505050565b6000601f19601f8301169050919050565b6000612642826125e0565b61264c81856125eb565b935061265c8185602086016125fc565b61266581612626565b840191505092915050565b6000602082019050818103600083015261268a8184612637565b905092915050565b6000819050919050565b6126a581612692565b81146126b057600080fd5b50565b6000813590506126c28161269c565b92915050565b6000602082840312156126de576126dd61251b565b5b60006126ec848285016126b3565b91505092915050565b600073ffffffffffffffffffffffffffffffffffffffff82169050919050565b6000612720826126f5565b9050919050565b61273081612715565b82525050565b600060208201905061274b6000830184612727565b92915050565b61275a81612715565b811461276557600080fd5b50565b60008135905061277781612751565b92915050565b600080604083850312156127945761279361251b565b5b60006127a285828601612768565b92505060206127b3858286016126b3565b9150509250929050565b6000806000606084860312156127d6576127d561251b565b5b60006127e486828701612768565b93505060206127f586828701612768565b9250506040612806868287016126b3565b9150509250925092565b6000819050919050565b600061283561283061282b846126f5565b612810565b6126f5565b9050919050565b60006128478261281a565b9050919050565b60006128598261283c565b9050919050565b6128698161284e565b82525050565b60006020820190506128846000830184612860565b92915050565b600080fd5b600080fd5b7f4e487b7100000000000000000000000000000000000000000000000000000000600052604160045260246000fd5b6128cc82612626565b810181811067ffffffffffffffff821117156128eb576128ea612894565b5b80604052505050565b60006128fe612511565b905061290a82826128c3565b919050565b600067ffffffffffffffff82111561292a57612929612894565b5b61293382612626565b9050602081019050919050565b82818337600083830152505050565b600061296261295d8461290f565b6128f4565b90508281526020810184848401111561297e5761297d61288f565b5b612989848285612940565b509392505050565b600082601f8301126129a6576129a561288a565b5b81356129b684826020860161294f565b91505092915050565b6000602082840312156129d5576129d461251b565b5b600082013567ffffffffffffffff8111156129f3576129f2612520565b5b6129ff84828501612991565b91505092915050565b600060208284031215612a1e57612a1d61251b565b5b6000612a2c84828501612768565b91505092915050565b612a3e81612692565b82525050565b6000602082019050612a596000830184612a35565b92915050565b612a68816125aa565b8114612a7357600080fd5b50565b600081359050612a8581612a5f565b92915050565b60008060408385031215612aa257612aa161251b565b5b6000612ab085828601612768565b9250506020612ac185828601612a76565b9150509250929050565b612ad481612692565b82525050565b600082825260208201905092915050565b6000612af6826125e0565b612b008185612ada565b9350612b108185602086016125fc565b612b1981612626565b840191505092915050565b612b2d81612715565b82525050565b600060a083016000830151612b4b6000860182612acb565b5060208301518482036020860152612b638282612aeb565b9150506040830151612b786040860182612b24565b506060830151612b8b6060860182612acb565b506080830151612b9e6080860182612acb565b508091505092915050565b60006020820190508181036000830152612bc38184612b33565b905092915050565b600060a082019050612be06000830188612a35565b8181036020830152612bf28187612637565b9050612c016040830186612727565b612c0e6060830185612a35565b612c1b6080830184612a35565b9695505050505050565b600067ffffffffffffffff821115612c4057612c3f612894565b5b612c4982612626565b9050602081019050919050565b6000612c69612c6484612c25565b6128f4565b905082815260208101848484011115612c8557612c8461288f565b5b612c90848285612940565b509392505050565b600082601f830112612cad57612cac61288a565b5b8135612cbd848260208601612c56565b91505092915050565b60008060008060808587031215612ce057612cdf61251b565b5b6000612cee87828801612768565b9450506020612cff87828801612768565b9350506040612d10878288016126b3565b925050606085013567ffffffffffffffff811115612d3157612d30612520565b5b612d3d87828801612c98565b91505092959194509250565b60008060408385031215612d6057612d5f61251b565b5b6000612d6e858286016126b3565b9250506020612d7f858286016126b3565b9150509250929050565b60008060408385031215612da057612d9f61251b565b5b6000612dae85828601612768565b9250506020612dbf85828601612768565b9150509250929050565b7f4e487b7100000000000000000000000000000000000000000000000000000000600052602260045260246000fd5b60006002820490506001821680612e1057607f821691505b602082108103612e2357612e22612dc9565b5b50919050565b6000606082019050612e3e6000830186612727565b612e4b6020830185612a35565b612e586040830184612727565b949350505050565b7f4f6e6c7920746865206f776e65722063616e2064656c6973742074686973206860008201527f6f75736500000000000000000000000000000000000000000000000000000000602082015250565b6000612ebc6024836125eb565b9150612ec782612e60565b604082019050919050565b60006020820190508181036000830152612eeb81612eaf565b9050919050565b60008190508160005260206000209050919050565b60006020601f8301049050919050565b600082821b905092915050565b600060088302612f547fffffffffffffffffffffffffffffffffffffffffffffffffffffffffffffffff82612f17565b612f5e8683612f17565b95508019841693508086168417925050509392505050565b6000612f91612f8c612f8784612692565b612810565b612692565b9050919050565b6000819050919050565b612fab83612f76565b612fbf612fb782612f98565b848454612f24565b825550505050565b600090565b612fd4612fc7565b612fdf818484612fa2565b505050565b5b8181101561300357612ff8600082612fcc565b600181019050612fe5565b5050565b601f8211156130485761301981612ef2565b61302284612f07565b81016020851015613031578190505b61304561303d85612f07565b830182612fe4565b50505b505050565b600082821c905092915050565b600061306b6000198460080261304d565b1980831691505092915050565b6000613084838361305a565b9150826002028217905092915050565b61309d826125e0565b67ffffffffffffffff8111156130b6576130b5612894565b5b6130c08254612df8565b6130cb828285613007565b600060209050601f8311600181146130fe57600084156130ec578287015190505b6130f68582613078565b86555061315e565b601f19841661310c86612ef2565b60005b828110156131345784890151825560018201915060208501945060208101905061310f565b86831015613151578489015161314d601f89168261305a565b8355505b6001600288020188555050505b505050505050565b7f4e487b7100000000000000000000000000000000000000000000000000000000600052601160045260246000fd5b60006131a082612692565b91507fffffffffffffffffffffffffffffffffffffffffffffffffffffffffffffffff82036131d2576131d1613166565b5b600182019050919050565b600081905092915050565b60006131f3826125e0565b6131fd81856131dd565b935061320d8185602086016125fc565b80840191505092915050565b600061322582856131e8565b915061323182846131e8565b91508190509392505050565b7f4f6e6c7920746865206f776e65722063616e206c697374207468697320686f7560008201527f736520666f722073616c65000000000000000000000000000000000000000000602082015250565b6000613299602b836125eb565b91506132a48261323d565b604082019050919050565b600060208201905081810360008301526132c88161328c565b9050919050565b60006060820190506132e46000830186612a35565b6132f16020830185612a35565b6132fe6040830184612727565b949350505050565b600061331182612692565b915061331c83612692565b925082820261332a81612692565b9150828204841483151761334157613340613166565b5b5092915050565b7f4e487b7100000000000000000000000000000000000000000000000000000000600052601260045260246000fd5b600061338282612692565b915061338d83612692565b92508261339d5761339c613348565b5b828204905092915050565b60006133b382612692565b91506133be83612692565b92508282039050818111156133d6576133d5613166565b5b92915050565b600081519050919050565b600082825260208201905092915050565b6000613403826133dc565b61340d81856133e7565b935061341d8185602086016125fc565b61342681612626565b840191505092915050565b60006080820190506134466000830187612727565b6134536020830186612727565b6134606040830185612a35565b818103606083015261347281846133f8565b905095945050505050565b60008151905061348c81612551565b92915050565b6000602082840312156134a8576134a761251b565b5b60006134b68482850161347d565b91505092915050565b60006040820190506134d46000830185612727565b6134e16020830184612a35565b939250505056fea2646970667358221220b9e38bd6230f9cf791249caa4d0ab746ede6855bd3dfd38f53d12a19d413b26664736f6c6343000814003360806040526103e86005553480156200001757600080fd5b50604051620016673803806200166783398181016040528101906200003d919062000200565b81818160039081620000509190620004d0565b508060049081620000629190620004d0565b5050505050620005b7565b6000604051905090565b600080fd5b600080fd5b600080fd5b600080fd5b6000601f19601f8301169050919050565b7f4e487b7100000000000000000000000000000000000000000000000000000000600052604160045260246000fd5b620000d6826200008b565b810181811067ffffffffffffffff82111715620000f857620000f76200009c565b5b80604052505050565b60006200010d6200006d565b90506200011b8282620000cb565b919050565b600067ffffffffffffffff8211156200013e576200013d6200009c565b5b62000149826200008b565b9050602081019050919050565b60005b838110156200017657808201518184015260208101905062000159565b60008484015250505050565b600062000199620001938462000120565b62000101565b905082815260208101848484011115620001b857620001b762000086565b5b620001c584828562000156565b509392505050565b600082601f830112620001e557620001e462000081565b5b8151620001f784826020860162000182565b91505092915050565b600080604083850312156200021a576200021962000077565b5b600083015167ffffffffffffffff8111156200023b576200023a6200007c565b5b6200024985828601620001cd565b925050602083015167ffffffffffffffff8111156200026d576200026c6200007c565b5b6200027b85828601620001cd565b9150509250929050565b600081519050919050565b7f4e487b7100000000000000000000000000000000000000000000000000000000600052602260045260246000fd5b60006002820490506001821680620002d857607f821691505b602082108103620002ee57620002ed62000290565b5b50919050565b60008190508160005260206000209050919050565b60006020601f8301049050919050565b600082821b905092915050565b600060088302620003587fffffffffffffffffffffffffffffffffffffffffffffffffffffffffffffffff8262000319565b62000364868362000319565b95508019841693508086168417925050509392505050565b6000819050919050565b6000819050919050565b6000620003b1620003ab620003a5846200037c565b62000386565b6200037c565b9050919050565b6000819050919050565b620003cd8362000390565b620003e5620003dc82620003b8565b84845462000326565b825550505050565b600090565b620003fc620003ed565b62000409818484620003c2565b505050565b5b81811015620004315762000425600082620003f2565b6001810190506200040f565b5050565b601f82111562000480576200044a81620002f4565b620004558462000309565b8101602085101562000465578190505b6200047d620004748562000309565b8301826200040e565b50505b505050565b600082821c905092915050565b6000620004a56000198460080262000485565b1980831691505092915050565b6000620004c0838362000492565b9150826002028217905092915050565b620004db8262000285565b67ffffffffffffffff811115620004f757620004f66200009c565b5b620005038254620002bf565b6200051082828562000435565b600060209050601f83116001811462000548576000841562000533578287015190505b6200053f8582620004b2565b865550620005af565b601f1984166200055886620002f4565b60005b8281101562000582578489015182556001820191506020850194506020810190506200055b565b86831015620005a257848901516200059e601f89168262000492565b8355505b6001600288020188555050505b505050505050565b6110a080620005c76000396000f3fe60806040526004361061009c5760003560e01c8063313ce56711610064578063313ce5671461019c5780634bf890f2146101c757806370a08231146101d157806395d89b411461020e578063a9059cbb14610239578063dd62ed3e146102765761009c565b806306fdde03146100a1578063095ea7b3146100cc57806318160ddd1461010957806323b872dd146101345780632c4e722e14610171575b600080fd5b3480156100ad57600080fd5b506100b66102b3565b6040516100c39190610c46565b60405180910390f35b3480156100d857600080fd5b506100f360048036038101906100ee9190610d01565b610345565b6040516101009190610d5c565b60405180910390f35b34801561011557600080fd5b5061011e610368565b60405161012b9190610d86565b60405180910390f35b34801561014057600080fd5b5061015b60048036038101906101569190610da1565b610372565b6040516101689190610d5c565b60405180910390f35b34801561017d57600080fd5b506101866103a1565b6040516101939190610d86565b60405180910390f35b3480156101a857600080fd5b506101b16103a7565b6040516101be9190610e10565b60405180910390f35b6101cf6103b0565b005b3480156101dd57600080fd5b506101f860048036038101906101f39190610e2b565b610412565b6040516102059190610d86565b60405180910390f35b34801561021a57600080fd5b5061022361045a565b6040516102309190610c46565b60405180910390f35b34801561024557600080fd5b50610260600480360381019061025b9190610d01565b6104ec565b60405161026d9190610d5c565b60405180910390f35b34801561028257600080fd5b5061029d60048036038101906102989190610e58565b61050f565b6040516102aa9190610d86565b60405180910390f35b6060600380546102c290610ec7565b80601f01602080910402602001604051908101604052809291908181526020018280546102ee90610ec7565b801561033b5780601f106103105761010080835404028352916020019161033b565b820191906000526020600020905b81548152906001019060200180831161031e57829003601f168201915b5050505050905090565b600080610350610596565b905061035d81858561059e565b600191505092915050565b6000600254905090565b60008061037d610596565b905061038a8582856105b0565b610395858585610644565b60019150509392505050565b60055481565b60006012905090565b600034116103f3576040517f08c379a00000000000000000000000000000000000000000000000000000000081526004016103ea90610f44565b60405180910390fd5b6000600554346104039190610f93565b905061040f3382610738565b50565b60008060008373ffffffffffffffffffffffffffffffffffffffff1673ffffffffffffffffffffffffffffffffffffffff168152602001908152602001600020549050919050565b60606004805461046990610ec7565b80601f016020809104026020016040519081016040528092919081815260200182805461049590610ec7565b80156104e25780601f106104b7576101008083540402835291602001916104e2565b820191906000526020600020905b8154815290600101906020018083116104c557829003601f168201915b5050505050905090565b6000806104f7610596565b9050610504818585610644565b600191505092915050565b6000600160008473ffffffffffffffffffffffffffffffffffffffff1673ffffffffffffffffffffffffffffffffffffffff16815260200190815260200160002060008373ffffffffffffffffffffffffffffffffffffffff1673ffffffffffffffffffffffffffffffffffffffff16815260200190815260200160002054905092915050565b600033905090565b6105ab83838360016107ba565b505050565b60006105bc848461050f565b90507fffffffffffffffffffffffffffffffffffffffffffffffffffffffffffffffff811461063e578181101561062e578281836040517ffb8f41b200000000000000000000000000000000000000000000000000000000815260040161062593929190610fe4565b60405180910390fd5b61063d848484840360006107ba565b5b50505050565b600073ffffffffffffffffffffffffffffffffffffffff168373ffffffffffffffffffffffffffffffffffffffff16036106b65760006040517f96c6fd1e0000000000000000000000000000000000000000000000000000000081526004016106ad919061101b565b60405180910390fd5b600073ffffffffffffffffffffffffffffffffffffffff168273ffffffffffffffffffffffffffffffffffffffff16036107285760006040517fec442f0500000000000000000000000000000000000000000000000000000000815260040161071f919061101b565b60405180910390fd5b610733838383610991565b505050565b600073ffffffffffffffffffffffffffffffffffffffff168273ffffffffffffffffffffffffffffffffffffffff16036107aa5760006040517fec442f050000000000000000000000000000000000000000000000000000000081526004016107a1919061101b565b60405180910390fd5b6107b660008383610991565b5050565b600073ffffffffffffffffffffffffffffffffffffffff168473ffffffffffffffffffffffffffffffffffffffff160361082c5760006040517fe602df05000000000000000000000000000000000000000000000000000000008152600401610823919061101b565b60405180910390fd5b600073ffffffffffffffffffffffffffffffffffffffff168373ffffffffffffffffffffffffffffffffffffffff160361089e5760006040517f94280d62000000000000000000000000000000000000000000000000000000008152600401610895919061101b565b60405180910390fd5b81600160008673ffffffffffffffffffffffffffffffffffffffff1673ffffffffffffffffffffffffffffffffffffffff16815260200190815260200160002060008573ffffffffffffffffffffffffffffffffffffffff1673ffffffffffffffffffffffffffffffffffffffff16815260200190815260200160002081905550801561098b578273ffffffffffffffffffffffffffffffffffffffff168473ffffffffffffffffffffffffffffffffffffffff167f8c5be1e5ebec7d5bd14f71427d1e84f3dd0314c0f7b2291e5b200ac8c7c3b925846040516109829190610d86565b60405180910390a35b50505050565b600073ffffffffffffffffffffffffffffffffffffffff168373ffffffffffffffffffffffffffffffffffffffff16036109e35780600260008282546109d79190611036565b92505081905550610ab6565b60008060008573ffffffffffffffffffffffffffffffffffffffff1673ffffffffffffffffffffffffffffffffffffffff16815260200190815260200160002054905081811015610a6f578381836040517fe450d38c000000000000000000000000000000000000000000000000000000008152600401610a6693929190610fe4565b60405180910390fd5b8181036000808673ffffffffffffffffffffffffffffffffffffffff1673ffffffffffffffffffffffffffffffffffffffff16815260200190815260200160002081905550505b600073ffffffffffffffffffffffffffffffffffffffff168273ffffffffffffffffffffffffffffffffffffffff1603610aff5780600260008282540392505081905550610b4c565b806000808473ffffffffffffffffffffffffffffffffffffffff1673ffffffffffffffffffffffffffffffffffffffff168152602001908152602001600020600082825401925050819055505b8173ffffffffffffffffffffffffffffffffffffffff168373ffffffffffffffffffffffffffffffffffffffff167fddf252ad1be2c89b69c2b068fc378daa952ba7f163c4a11628f55a4df523b3ef83604051610ba99190610d86565b60405180910390a3505050565b600081519050919050565b600082825260208201905092915050565b60005b83811015610bf0578082015181840152602081019050610bd5565b60008484015250505050565b6000601f19601f8301169050919050565b6000610c1882610bb6565b610c228185610bc1565b9350610c32818560208601610bd2565b610c3b81610bfc565b840191505092915050565b60006020820190508181036000830152610c608184610c0d565b905092915050565b600080fd5b600073ffffffffffffffffffffffffffffffffffffffff82169050919050565b6000610c9882610c6d565b9050919050565b610ca881610c8d565b8114610cb357600080fd5b50565b600081359050610cc581610c9f565b92915050565b6000819050919050565b610cde81610ccb565b8114610ce957600080fd5b50565b600081359050610cfb81610cd5565b92915050565b60008060408385031215610d1857610d17610c68565b5b6000610d2685828601610cb6565b9250506020610d3785828601610cec565b9150509250929050565b60008115159050919050565b610d5681610d41565b82525050565b6000602082019050610d716000830184610d4d565b92915050565b610d8081610ccb565b82525050565b6000602082019050610d9b6000830184610d77565b92915050565b600080600060608486031215610dba57610db9610c68565b5b6000610dc886828701610cb6565b9350506020610dd986828701610cb6565b9250506040610dea86828701610cec565b9150509250925092565b600060ff82169050919050565b610e0a81610df4565b82525050565b6000602082019050610e256000830184610e01565b92915050565b600060208284031215610e4157610e40610c68565b5b6000610e4f84828501610cb6565b91505092915050565b60008060408385031215610e6f57610e6e610c68565b5b6000610e7d85828601610cb6565b9250506020610e8e85828601610cb6565b9150509250929050565b7f4e487b7100000000000000000000000000000000000000000000000000000000600052602260045260246000fd5b60006002820490506001821680610edf57607f821691505b602082108103610ef257610ef1610e98565b5b50919050565b7f53656e642045544820746f2065786368616e676520666f7220706f696e747300600082015250565b6000610f2e601f83610bc1565b9150610f3982610ef8565b602082019050919050565b60006020820190508181036000830152610f5d81610f21565b9050919050565b7f4e487b7100000000000000000000000000000000000000000000000000000000600052601160045260246000fd5b6000610f9e82610ccb565b9150610fa983610ccb565b9250828202610fb781610ccb565b91508282048414831517610fce57610fcd610f64565b5b5092915050565b610fde81610c8d565b82525050565b6000606082019050610ff96000830186610fd5565b6110066020830185610d77565b6110136040830184610d77565b949350505050565b60006020820190506110306000830184610fd5565b92915050565b600061104182610ccb565b915061104c83610ccb565b925082820190508082111561106457611063610f64565b5b9291505056fea2646970667358221220e3ad5c6354c3fec2ee7b32c2356a0ffc051826cda121ea3f552ee52ebbbaba5f64736f6c63430008140033",
  "linkReferences": {},
  "deployedLinkReferences": {}
}